{
  "contractName": "TomoBird",
  "abi": [
    {
      "constant": true,
      "inputs": [
        {
          "name": "",
          "type": "uint256"
        }
      ],
      "name": "addPlayers",
      "outputs": [
        {
          "name": "",
          "type": "address"
        }
      ],
      "payable": false,
      "stateMutability": "view",
      "type": "function"
    },
    {
      "constant": true,
      "inputs": [],
      "name": "pointPrice",
      "outputs": [
        {
          "name": "",
          "type": "uint256"
        }
      ],
      "payable": false,
      "stateMutability": "view",
      "type": "function"
    },
    {
      "constant": true,
      "inputs": [],
      "name": "isActive",
      "outputs": [
        {
          "name": "",
          "type": "bool"
        }
      ],
      "payable": false,
      "stateMutability": "view",
      "type": "function"
    },
    {
      "constant": true,
      "inputs": [],
      "name": "fundsDistributor",
      "outputs": [
        {
          "name": "",
          "type": "address"
        }
      ],
      "payable": false,
      "stateMutability": "view",
      "type": "function"
    },
    {
      "constant": true,
      "inputs": [],
      "name": "toogleStatus",
      "outputs": [
        {
          "name": "",
          "type": "bool"
        }
      ],
      "payable": false,
      "stateMutability": "view",
      "type": "function"
    },
    {
      "constant": true,
      "inputs": [],
      "name": "owner",
      "outputs": [
        {
          "name": "",
          "type": "address"
        }
      ],
      "payable": false,
      "stateMutability": "view",
      "type": "function"
    },
    {
      "constant": true,
      "inputs": [],
      "name": "birdPrice",
      "outputs": [
        {
          "name": "",
          "type": "uint256"
        }
      ],
      "payable": false,
      "stateMutability": "view",
      "type": "function"
    },
    {
      "constant": false,
      "inputs": [
        {
          "name": "_newOwnerAddr",
          "type": "address"
        }
      ],
      "name": "changeOwner",
      "outputs": [],
      "payable": false,
      "stateMutability": "nonpayable",
      "type": "function"
    },
    {
      "constant": true,
      "inputs": [
        {
          "name": "",
          "type": "address"
        }
      ],
      "name": "players",
      "outputs": [
        {
          "name": "score",
          "type": "uint256"
        }
      ],
      "payable": false,
      "stateMutability": "view",
      "type": "function"
    },
    {
      "inputs": [
        {
          "name": "distributor",
          "type": "address"
        }
      ],
      "payable": false,
      "stateMutability": "nonpayable",
      "type": "constructor"
    },
    {
      "anonymous": false,
      "inputs": [
        {
          "indexed": false,
          "name": "_birdPrice",
          "type": "uint256"
        }
      ],
      "name": "ChangePriceLog",
      "type": "event"
    },
    {
      "anonymous": false,
      "inputs": [
        {
          "indexed": false,
          "name": "_address",
          "type": "address"
        },
        {
          "indexed": false,
          "name": "_birdPrice",
          "type": "uint256"
        }
      ],
      "name": "BuyBird",
      "type": "event"
    },
    {
      "anonymous": false,
      "inputs": [
        {
          "indexed": false,
          "name": "_address",
          "type": "address"
        },
        {
          "indexed": false,
          "name": "score",
          "type": "uint256"
        }
      ],
      "name": "UpdateScore",
      "type": "event"
    },
    {
      "anonymous": false,
      "inputs": [
        {
          "indexed": false,
          "name": "_address",
          "type": "address"
        },
        {
          "indexed": false,
          "name": "score",
          "type": "uint256"
        },
        {
          "indexed": false,
          "name": "tomo",
          "type": "uint256"
        }
      ],
      "name": "DistributeTOMO",
      "type": "event"
    },
    {
      "anonymous": false,
      "inputs": [
        {
          "indexed": false,
          "name": "_address",
          "type": "address"
        },
        {
          "indexed": false,
          "name": "amount",
          "type": "uint256"
        }
      ],
      "name": "Deposit",
      "type": "event"
    },
    {
      "constant": false,
      "inputs": [],
      "name": "deposit",
      "outputs": [],
      "payable": true,
      "stateMutability": "payable",
      "type": "function"
    },
    {
      "constant": false,
      "inputs": [],
      "name": "toogleActive",
      "outputs": [],
      "payable": false,
      "stateMutability": "nonpayable",
      "type": "function"
    },
    {
      "constant": false,
      "inputs": [],
      "name": "buyBird",
      "outputs": [],
      "payable": true,
      "stateMutability": "payable",
      "type": "function"
    },
    {
      "constant": false,
      "inputs": [],
      "name": "clameTOMO",
      "outputs": [],
      "payable": false,
      "stateMutability": "nonpayable",
      "type": "function"
    },
    {
      "constant": false,
      "inputs": [],
      "name": "distributeTOMO",
      "outputs": [],
      "payable": false,
      "stateMutability": "nonpayable",
      "type": "function"
    },
    {
      "constant": false,
      "inputs": [
        {
          "name": "score",
          "type": "uint256"
        }
      ],
      "name": "updateScore",
      "outputs": [],
      "payable": false,
      "stateMutability": "nonpayable",
      "type": "function"
    },
    {
      "constant": false,
      "inputs": [
        {
          "name": "_birdPrice",
          "type": "uint256"
        }
      ],
      "name": "changeBirdPrice",
      "outputs": [],
      "payable": false,
      "stateMutability": "nonpayable",
      "type": "function"
    },
    {
      "constant": true,
      "inputs": [],
      "name": "getBirdPrice",
      "outputs": [
        {
          "name": "",
          "type": "uint256"
        }
      ],
      "payable": false,
      "stateMutability": "view",
      "type": "function"
    },
    {
      "constant": false,
      "inputs": [
        {
          "name": "_address",
          "type": "address"
        }
      ],
      "name": "getScore",
      "outputs": [
        {
          "name": "",
          "type": "uint256"
        }
      ],
      "payable": false,
      "stateMutability": "nonpayable",
      "type": "function"
    }
  ],
  "bytecode": "0x608060405267016345785d8a00006002556611c37937e080006003556001600460006101000a81548160ff0219169083151502179055506000600460016101000a81548160ff02191690831515021790555034801561005d57600080fd5b50604051602080610fdc8339810180604052810190808051906020019092919050505033806000806101000a81548173ffffffffffffffffffffffffffffffffffffffff021916908373ffffffffffffffffffffffffffffffffffffffff1602179055505080600160006101000a81548173ffffffffffffffffffffffffffffffffffffffff021916908373ffffffffffffffffffffffffffffffffffffffff16021790555050610ec9806101136000396000f3006080604052600436106100fc576000357c0100000000000000000000000000000000000000000000000000000000900463ffffffff1680630179cefe146101015780630d8c1a621461016e5780630ed8867c146101855780630f7513e9146101b057806322f3e2d4146101dd5780633236f70e1461020c5780633813c9ff1461022357806374cb55fb1461022d5780637653c0971461028457806385b75b1e1461029b5780638da5cb5b146102ca5780638e04f5c0146103215780639c1359c61461034c578063a6f9dae114610377578063d0e30db0146103ba578063d47875d0146103c4578063e2eb41ff1461041b578063f853e34d14610472575b600080fd5b34801561010d57600080fd5b5061012c6004803603810190808035906020019092919050505061049f565b604051808273ffffffffffffffffffffffffffffffffffffffff1673ffffffffffffffffffffffffffffffffffffffff16815260200191505060405180910390f35b34801561017a57600080fd5b506101836104dd565b005b34801561019157600080fd5b5061019a61059b565b6040518082815260200191505060405180910390f35b3480156101bc57600080fd5b506101db600480360381019080803590602001909291905050506105a1565b005b3480156101e957600080fd5b506101f261063d565b604051808215151515815260200191505060405180910390f35b34801561021857600080fd5b50610221610650565b005b61022b610929565b005b34801561023957600080fd5b50610242610a86565b604051808273ffffffffffffffffffffffffffffffffffffffff1673ffffffffffffffffffffffffffffffffffffffff16815260200191505060405180910390f35b34801561029057600080fd5b50610299610aac565b005b3480156102a757600080fd5b506102b0610b89565b604051808215151515815260200191505060405180910390f35b3480156102d657600080fd5b506102df610b9c565b604051808273ffffffffffffffffffffffffffffffffffffffff1673ffffffffffffffffffffffffffffffffffffffff16815260200191505060405180910390f35b34801561032d57600080fd5b50610336610bc1565b6040518082815260200191505060405180910390f35b34801561035857600080fd5b50610361610bc7565b6040518082815260200191505060405180910390f35b34801561038357600080fd5b506103b8600480360381019080803573ffffffffffffffffffffffffffffffffffffffff169060200190929190505050610bd1565b005b6103c2610cab565b005b3480156103d057600080fd5b50610405600480360381019080803573ffffffffffffffffffffffffffffffffffffffff169060200190929190505050610d73565b6040518082815260200191505060405180910390f35b34801561042757600080fd5b5061045c600480360381019080803573ffffffffffffffffffffffffffffffffffffffff169060200190929190505050610dc4565b6040518082815260200191505060405180910390f35b34801561047e57600080fd5b5061049d60048036038101908080359060200190929190505050610de2565b005b6006818154811015156104ae57fe5b906000526020600020016000915054906101000a900473ffffffffffffffffffffffffffffffffffffffff1681565b6000809054906101000a900473ffffffffffffffffffffffffffffffffffffffff1673ffffffffffffffffffffffffffffffffffffffff163373ffffffffffffffffffffffffffffffffffffffff1614151561053857600080fd5b600460009054906101000a900460ff16151561056e576001600460006101000a81548160ff021916908315150217905550610599565b600460019054906101000a900460ff1615600460016101000a81548160ff0219169083151502179055505b565b60035481565b6000809054906101000a900473ffffffffffffffffffffffffffffffffffffffff1673ffffffffffffffffffffffffffffffffffffffff163373ffffffffffffffffffffffffffffffffffffffff161415156105fc57600080fd5b806002819055507fa7f323804bb6c7de780f224c7ed1b5bf07b45d48a35b7a6197616a807eb2d097816040518082815260200191505060405180910390a150565b600460009054906101000a900460ff1681565b60008060008060009054906101000a900473ffffffffffffffffffffffffffffffffffffffff1673ffffffffffffffffffffffffffffffffffffffff163373ffffffffffffffffffffffffffffffffffffffff161415156106b057600080fd5b600092505b60068054905083101561092457600560006006858154811015156106d557fe5b9060005260206000200160009054906101000a900473ffffffffffffffffffffffffffffffffffffffff1673ffffffffffffffffffffffffffffffffffffffff1673ffffffffffffffffffffffffffffffffffffffff16815260200190815260200160002091508160000154905060008111156109175760206040519081016040528060008152506005600060068681548110151561077057fe5b9060005260206000200160009054906101000a900473ffffffffffffffffffffffffffffffffffffffff1673ffffffffffffffffffffffffffffffffffffffff1673ffffffffffffffffffffffffffffffffffffffff168152602001908152602001600020600082015181600001559050506006838154811015156107f157fe5b9060005260206000200160009054906101000a900473ffffffffffffffffffffffffffffffffffffffff1673ffffffffffffffffffffffffffffffffffffffff166108fc82600354029081150290604051600060405180830381858888f19350505050158015610865573d6000803e3d6000fd5b507f96bb114ed3ffb31ac0ffb7093f9f02792d05ec54be3dbe05a77169536e2c814760068481548110151561089657fe5b9060005260206000200160009054906101000a900473ffffffffffffffffffffffffffffffffffffffff16828360035402604051808473ffffffffffffffffffffffffffffffffffffffff1673ffffffffffffffffffffffffffffffffffffffff168152602001838152602001828152602001935050505060405180910390a15b82806001019350506106b5565b505050565b600460009054906101000a900460ff16151561094457600080fd5b6002543414151561095457600080fd5b6020604051908101604052806000815250600560003373ffffffffffffffffffffffffffffffffffffffff1673ffffffffffffffffffffffffffffffffffffffff1681526020019081526020016000206000820151816000015590505060063390806001815401808255809150509060018203906000526020600020016000909192909190916101000a81548173ffffffffffffffffffffffffffffffffffffffff021916908373ffffffffffffffffffffffffffffffffffffffff160217905550507fc281eb5b5af8b3548fe0ff8db04cd335c9f456e28b0bffd963e5221445e7687f33600254604051808373ffffffffffffffffffffffffffffffffffffffff1673ffffffffffffffffffffffffffffffffffffffff1681526020018281526020019250505060405180910390a1565b600160009054906101000a900473ffffffffffffffffffffffffffffffffffffffff1681565b6000809054906101000a900473ffffffffffffffffffffffffffffffffffffffff1673ffffffffffffffffffffffffffffffffffffffff163373ffffffffffffffffffffffffffffffffffffffff16141515610b0757600080fd5b600160009054906101000a900473ffffffffffffffffffffffffffffffffffffffff1673ffffffffffffffffffffffffffffffffffffffff166108fc3073ffffffffffffffffffffffffffffffffffffffff16319081150290604051600060405180830381858888f19350505050158015610b86573d6000803e3d6000fd5b50565b600460019054906101000a900460ff1681565b6000809054906101000a900473ffffffffffffffffffffffffffffffffffffffff1681565b60025481565b6000600254905090565b6000809054906101000a900473ffffffffffffffffffffffffffffffffffffffff1673ffffffffffffffffffffffffffffffffffffffff163373ffffffffffffffffffffffffffffffffffffffff16141515610c2c57600080fd5b600073ffffffffffffffffffffffffffffffffffffffff168173ffffffffffffffffffffffffffffffffffffffff1614151515610c6857600080fd5b806000806101000a81548173ffffffffffffffffffffffffffffffffffffffff021916908373ffffffffffffffffffffffffffffffffffffffff16021790555050565b6000809054906101000a900473ffffffffffffffffffffffffffffffffffffffff1673ffffffffffffffffffffffffffffffffffffffff163373ffffffffffffffffffffffffffffffffffffffff16141515610d0657600080fd5b7fe1fffcc4923d04b559f4d29a8bfc6cda04eb5b0d3c460751c2402c5c5cc9109c3334604051808373ffffffffffffffffffffffffffffffffffffffff1673ffffffffffffffffffffffffffffffffffffffff1681526020018281526020019250505060405180910390a1565b600080600560003373ffffffffffffffffffffffffffffffffffffffff1673ffffffffffffffffffffffffffffffffffffffff16815260200190815260200160002090508060000154915050919050565b60056020528060005260406000206000915090508060000154905081565b6000600560003373ffffffffffffffffffffffffffffffffffffffff1673ffffffffffffffffffffffffffffffffffffffff16815260200190815260200160002090508181600001819055507f013b1f39636d8a559b1ef1abc9d01e6f201339ec01197b878d56e90509edf0fc3383604051808373ffffffffffffffffffffffffffffffffffffffff1673ffffffffffffffffffffffffffffffffffffffff1681526020018281526020019250505060405180910390a150505600a165627a7a7230582040d9ef95c7c9065395643e29588ab00c95c59c79342e9b3069599cdaa90102180029",
  "source": "pragma solidity ^0.4.25;\r\n\r\n\r\n/**\r\n *Submitted for verification at Etherscan.io on 2018-11-02\r\n*/\r\n\r\ncontract Owner {\r\n    address public owner;\r\n\r\n    modifier onlyOwner() {\r\n        require(msg.sender == owner);\r\n        _;\r\n    }\r\n\r\n    constructor(address _owner) public {\r\n        owner = _owner;\r\n    }\r\n\r\n    function changeOwner(address _newOwnerAddr) public onlyOwner {\r\n        require(_newOwnerAddr != address(0));\r\n        owner = _newOwnerAddr;\r\n    }\r\n}\r\n/* *\r\n* safe math\r\n*/\r\ncontract DSSafeAddSub {\r\n\r\n    function safeToAdd(uint a, uint b) internal returns (bool) {\r\n        return (a + b >= a);\r\n    }\r\n\r\n    function safeAdd(uint a, uint b) internal returns (uint) {\r\n        if (!safeToAdd(a, b)) revert();\r\n        return a + b;\r\n    }\r\n\r\n    function safeToSubtract(uint a, uint b) internal returns (bool) {\r\n        return (b <= a);\r\n    }\r\n\r\n    function safeSub(uint a, uint b) internal returns (uint) {\r\n        if (!safeToSubtract(a, b)) revert();\r\n        return a - b;\r\n    }\r\n}\r\n\r\n\r\ncontract TomoBird is Owner,DSSafeAddSub {\r\n    \r\n    struct Bird {\r\n        uint score;\r\n    }\r\n\r\n    /** vars */\r\n    // Funds distributor address.\r\n    address public fundsDistributor;\r\n    uint public birdPrice = 0.1 ether;\r\n    uint public pointPrice = 0.005 ether;\r\n    // Game status.\r\n    bool public isActive = true;\r\n    // The variable that indicates game status switching.\r\n    bool public toogleStatus = false;\r\n    mapping (address => Bird) public players;\r\n    address[] public addPlayers;\r\n\r\n    /* events */\r\n    event ChangePriceLog(uint _birdPrice);\r\n    event BuyBird(address _address, uint _birdPrice);\r\n    event UpdateScore(address _address, uint score);\r\n    event DistributeTOMO(address _address, uint score, uint tomo);\r\n    event Deposit(address _address, uint amount);\r\n\r\n    constructor(address distributor) public Owner(msg.sender)\r\n    {\r\n        fundsDistributor = distributor;\r\n    }\r\n    \r\n    function deposit() payable public onlyOwner {\r\n       emit Deposit(msg.sender, msg.value);\r\n    }\r\n    \r\n     function toogleActive() public onlyOwner() {\r\n        if (!isActive) {\r\n            isActive = true;\r\n        } else {\r\n            toogleStatus = !toogleStatus;\r\n        }\r\n    }\r\n\r\n    function buyBird() payable public{\r\n        require(isActive);\r\n        require(msg.value == birdPrice);\r\n        players[msg.sender] = Bird(0);\r\n        addPlayers.push(msg.sender);\r\n        emit BuyBird(msg.sender, birdPrice);\r\n    }\r\n    \r\n    function clameTOMO() public onlyOwner {\r\n        fundsDistributor.transfer(address(this).balance);\r\n    }\r\n    \r\n    function distributeTOMO() public onlyOwner {\r\n        for (uint i=0; i< addPlayers.length; i++) {\r\n            Bird bird = players[addPlayers[i]];\r\n            uint score = bird.score;\r\n            if(score > 0){\r\n                players[addPlayers[i]] = Bird(0);\r\n                addPlayers[i].transfer(pointPrice*score);\r\n                emit DistributeTOMO(addPlayers[i], score, pointPrice*score);\r\n            }\r\n        }\r\n    }\r\n    \r\n    function updateScore(uint score) public {\r\n        Bird bird = players[msg.sender];\r\n        bird.score = score;\r\n        emit UpdateScore(msg.sender, score);\r\n    }\r\n\r\n    function changeBirdPrice(uint _birdPrice) public onlyOwner  {\r\n        birdPrice = _birdPrice;\r\n        emit ChangePriceLog(_birdPrice);\r\n    }\r\n    \r\n    function getBirdPrice() constant returns (uint) {\r\n        return birdPrice;\r\n    }\r\n    \r\n    function getScore(address _address) public returns (uint) {\r\n        Bird bird = players[msg.sender];\r\n        return bird.score;\r\n    }\r\n    \r\n    \r\n\r\n}",
  "sourcePath": "D:/WORKSPACE/tomobird-contract/contracts/TomoBird.sol",
  "compiler": {
    "name": "solc",
    "version": "0.4.26+commit.4563c3fc.Emscripten.clang"
  },
  "schemaVersion": "3.0.13",
  "updatedAt": "2019-08-29T13:51:07.251Z",
  "devdoc": {
    "methods": {}
  },
  "userdoc": {
    "methods": {}
  }
}